:100000000C9446000C9465000C9465000C946500FB
:100010000C9465000C9465000C9465000C946500CC
:100020000C9465000C9465000C9465000C946500BC
:100030000C9465000C94DE000C9465000C94650033
:100040000C9465000C9465000C9465000C9465009C
:100050000C9465000C9465000C9465000C9465008C
:100060000C9465000C9465000C9465000C9465007C
:100070000C9465000C9465000C9465000C9465006C
:100080000C9465000C9465000C94650011241FBE4F
:10009000CFEFD0E4DEBFCDBF11E0A0E0B1E0EEE5F0
:1000A000F6E000E00BBF02C007900D92A231B1074D
:1000B000D9F721E0A2E1B1E001C01D92A332B2075D
:1000C000E1F70E9495020C942D030C940000CF934D
:1000D000DF9300D01F92CDB7DEB789837B836A831D
:1000E00089818A3031F48A819B81BC018DE00E9434
:1000F000670080EC90E0FC018081882F90E08072A6
:100100009927892BB1F386EC90E02981FC012083AB
:1001100080E090E00F900F900F90DF91CF910895C5
:10012000CF93DF93CDB7DEB781E08093120100005B
:10013000DF91CF910895CF93DF93CDB7DEB781E8FC
:1001400090E0FC0110820000DF91CF910895CF93E1
:10015000DF93CDB7DEB781E890E02BE0FC01208390
:1001600088E890E02DE730E0FC01318320838FE6C2
:1001700090E022E0FC01208384E890E0FC01118201
:10018000108280910E0190910F01A0911001B09109
:1001900011018093130190931401A0931501B09362
:1001A00016018FE590E02FE530E0F901208120680D
:1001B000FC0120830000DF91CF9108951F920F92E0
:1001C00000905F000F92112400905B000F922F931C
:1001D0003F934F935F936F937F938F939F93AF93CF
:1001E000BF93EF93FF93CF93DF93CDB7DEB78091AB
:1001F000130190911401A0911501B091160101977E
:10020000A109B1098093130190931401A0931501E2
:10021000B09316018091130190911401A0911501E2
:10022000B0911601892B8A2B8B2B91F40E949000A0
:1002300080910E0190910F01A0911001B0911101D8
:100240008093130190931401A0931501B0931601AC
:100250000000DF91CF91FF91EF91BF91AF919F91FE
:100260008F917F916F915F914F913F912F910F905F
:1002700000925B000F9000925F000F901F90189506
:10028000CF93DF9300D000D0CDB7DEB769837A83F8
:100290008B839C8389819A81AB81BC8180930E0181
:1002A00090930F01A0931001B093110180910E0162
:1002B00090910F01A0911001B09111018093130151
:1002C00090931401A0931501B093160100000F90B4
:1002D0000F900F900F90DF91CF910895CF93DF9300
:1002E000CDB7DEB780912001909121018130910539
:1002F00081F08130910530F08230910589F00397CB
:10030000B1F01CC081E090E0909321018093200126
:100310001AC082E090E0909321018093200113C0E5
:1003200083E090E090932101809320010CC081E054
:1003300090E0909321018093200105C0109221014B
:1003400010922001000080912001909121018130C4
:10035000910549F08130910590F08230910539F096
:10036000039749F00DC081E080931B0109C082E032
:1003700080931B0105C084E080931B0101C0000035
:100380000000DF91CF910895CF93DF93CDB7DEB713
:1003900080911E0190911F018130910569F081309B
:1003A000910518F0029779F015C081E090E09093E4
:1003B0001F0180931E0113C082E090E090931F0103
:1003C00080931E010CC081E090E090931F01809308
:1003D0001E0105C010921F0110921E0100008091A5
:1003E0001E0190911F018130910531F081309105FE
:1003F00050F0029729F008C088E08093220104C0E1
:100400001092220101C000000000DF91CF910895F9
:10041000CF93DF93CDB7DEB780911C0190911D0182
:10042000892B09F00DC085E290E030911B012091ED
:100430002201322B20911701232BFC012083000085
:100440000000DF91CF910895CF93DF93CDB7DEB752
:100450008091190190911A018130910529F1813023
:10046000910518F0029741F037C082E090E0909338
:100470001A018093190130C080E290E0FC01808174
:10048000882F90E084709927892B39F481E090E0DF
:1004900090931A01809319011FC082E090E090931D
:1004A0001A018093190118C080E290E0FC0180815C
:1004B000882F90E084709927892B39F082E090E0B2
:1004C00090931A018093190106C081E090E0909307
:1004D0001A018093190100008091190190911A016D
:1004E0008130910559F081309105D0F0029709F0E3
:1004F00018C0109217011092180113C080911801B2
:10050000833020F480E48093170104C01092170117
:1005100010921801809118018F5F8093180101C01B
:1005200000000000DF91CF910895CF93DF93CDB706
:10053000DEB72C970FB6F894DEBF0FBECDBF81E2B9
:1005400090E0FC01108282E290E02FEFFC0120831A
:1005500084E290E02FEFFC01208385E290E0FC0133
:1005600010828CE291E0A0E0B0E089839A83AB83B3
:10057000BC8388EE93E0A0E0B0E08D839E83AF83E0
:10058000B88781E090E0A0E0B0E089879A87AB87E8
:10059000BC8789859A85AB85BC85BC01CD010E944D
:1005A00040010E94A7001092210110922001109298
:1005B0001F0110921E0110921D0110921C01109239
:1005C0001A011092190189819A81AB81BC818C3208
:1005D0009140A105B10530F00E946E0119821A8286
:1005E0001B821C828D819E81AF81B885883E93409D
:1005F000A105B10530F00E94C4011D821E821F8238
:1006000018860E9424020E940802000080911201B4
:100610008823E1F31092120129813A814B815C8198
:1006200089859A85AB85BC85820F931FA41FB51F52
:1006300089839A83AB83BC832D813E814F8158850A
:1006400089859A85AB85BC85820F931FA41FB51F32
:0E0650008D839E83AF83B887B6CFF894FFCF1B
:10065E000000000200000000670000000000010022
:02066E0000008A
:00000001FF
